:100000000C9479000C94A1000C94A1000C94A10014
:100010000C94A1000C94A1000C94A1000C94A100DC
:100020000C94A1000C94A1000C94A1000C94A100CC
:100030000C94A1000C94A1000C94A1000C94A100BC
:100040000C94F50A0C94A1000C94650B0C943F0BD6
:100050000C94A1000C94A1000C94A1000C94A1009C
:100060000C94970B0C94A100084AD73B3BCE016E31
:1000700084BCBFFDC12F3D6C74319ABD56833DDAFF
:100080003D00C77F11BED9E4BB4C3E916BAAAABE0E
:10009000000000803F00000000002300260029002F
:1000A00000000000240027002A00000000002500B6
:1000B00028002B00040404040404040402020202C5
:1000C000020203030303030301020408102040801B
:1000D000010204081020010204081020000000089A
:1000E00000020100000304070000000000000000FF
:1000F000FB0C11241FBECFEFD8E0DEBFCDBF11E057
:10010000A0E0B1E0ECE3F5E202C005900D92A0336F
:10011000B107D9F722E0A0E3B1E001C01D92A33EF0
:10012000B207E1F710E0C9E7D0E004C02197FE0173
:100130000E940E0FC837D107C9F70E943C0D0C94DE
:100140009C120C9400008091A6019091A501891B3E
:10015000990B08950895089590E0FC01E452FF4F33
:100160002491FC01E853FF4F3491FC01EC54FF4F04
:10017000E491EE23C9F0222339F0233001F1A8F4F1
:10018000213019F1223029F1F0E0EE0FFF1FE65582
:10019000FF4FA591B4918FB7F894EC91611126C0EF
:1001A00030953E233C938FBF08952730A9F0283027
:1001B000C9F0243049F7809180008F7D03C0809181
:1001C00080008F7780938000DFCF84B58F7784BDE8
:1001D000DBCF84B58F7DFBCF8091B0008F7780938C
:1001E000B000D2CF8091B0008F7DF9CF3E2BDACF17
:1001F000CF93DF9390E0FC01E853FF4F24918C54A0
:100200009F4FFC0184918823D1F090E0880F991FC3
:10021000FC01E056FF4FA591B491FC01E655FF4F5C
:10022000C591D49161110EC09FB7F8948C91E22FC3
:10023000E0958E238C932881E223E8839FBFDF9192
:10024000CF9108958FB7F894EC91E22BEC938FBF88
:10025000F6CF1F93CF93DF93182FEB0161E00E943D
:10026000F800CF3FD10539F461E0812FDF91CF91C4
:100270001F910C94AC00E12FF0E0E452FF4FE491A9
:10028000E33039F148F4E130B9F0E230E9F0C03858
:10029000D10554F760E0E9CFE73029F1E83059F1B2
:1002A000E430A9F780918000806280938000D09331
:1002B0008B00C0938A0004C084B5806884BDC7BD2C
:1002C000DF91CF911F91089584B5806284BDC8BD30
:1002D000F7CF80918000806880938000D093890060
:1002E000C0938800EDCF8091B00080688093B0000B
:1002F000C093B300E5CF8091B00080628093B000DE
:10030000C093B400DDCF3FB7F89480917501909110
:100310007601A0917701B091780126B5A89B05C020
:100320002F3F19F00196A11DB11D3FBFBA2FA92F74
:10033000982F8827BC01CD01620F711D811D911D71
:1003400042E0660F771F881F991F4A95D1F70895DD
:100350008F929F92AF92BF92CF92DF92EF92FF92D5
:100360004B015C010E9483016B017C010E948301AF
:100370006C197D098E099F09683E734081059105BE
:10038000A8F321E0821A9108A108B10888EEC80EEE
:1003900083E0D81EE11CF11C81149104A104B10476
:1003A00029F7FF90EF90DF90CF90BF90AF909F9094
:1003B0008F900895AF92BF92CF92DF92EF92FF920B
:1003C0000F931F93CF93DF936C017B018B01040F7D
:1003D000151FEB015E01AE18BF08C017D10759F019
:1003E0006991D601ED91FC910190F081E02DC6015B
:1003F0000995892B79F7C501DF91CF911F910F9155
:10040000FF90EF90DF90CF90BF90AF900895FC01E8
:10041000538D448D252F30E0842F90E0821B930B69
:10042000541710F0CF96089501970895FC01918D0F
:10043000828D981761F0A28DAE0FBF2FB11D5D9612
:100440008C91928D9F5F9F73928F90E008958FEFB4
:100450009FEF0895FC01918D828D981731F0828D68
:10046000E80FF11D858D90E008958FEF9FEF0895BF
:10047000FC01918D228D892F90E0805C9F4F821B23
:1004800091098F739927089587EF91E00E943802B0
:1004900021E0892B09F420E0822F089580E090E08C
:1004A000892B29F00E94440281110C9400000895C8
:1004B000FC01A48DA80FB92FB11DA35ABF4F2C91D9
:1004C000848D90E001968F739927848FA689B789D0
:1004D0002C93A089B1898C91837080648C93938DC7
:1004E000848D981306C00288F389E02D80818F7D6A
:1004F00080830895EF92FF920F931F93CF93DF9322
:10050000EC0181E0888F9B8D8C8D98131AC0E8894F
:10051000F989808185FF15C09FB7F894EE89FF891E
:100520006083E889F98980818370806480839FBFBC
:1005300081E090E0DF91CF911F910F91FF90EF90BC
:100540000895F62E0B8D10E00F5F1F4F0F731127CC
:10055000E02E8C8D8E110CC00FB607FCFACFE88907
:10056000F989808185FFF5CFCE010E945802F1CF35
:10057000EB8DEC0FFD2FF11DE35AFF4FF0829FB77B
:10058000F8940B8FEA89FB8980818062CFCFCF936B
:10059000DF93EC01888D8823B9F0AA89BB89E889AB
:1005A000F9898C9185FD03C0808186FD0DC00FB651
:1005B00007FCF7CF8C9185FFF2CF808185FFEDCFCF
:1005C000CE010E945802E9CFDF91CF91089520918A
:1005D0005101260F3327331F21323105ECF42091CE
:1005E000CD01FC0190E080E0243069F082E00895C4
:1005F000A09151012191AC014F5C5E4FA40FB52F2A
:10060000B11D2C930196861798F380915101680FC4
:100610006093510180E0089581E008951092CD012A
:1006200081E08093CC011092A70161E082E10E94F9
:10063000AC0061E083E10E94AC00E9EBF0E0808176
:100640008E7F808380818D7F808388E48093B80053
:1006500085E48093BC000895CF93DF9391E090935D
:1006600030018823B9F0C091B800D091BA008091D0
:10067000BC008A7B8093BC0060E082E10E94AC00F9
:1006800060E083E10E94AC000E940E03D093BA00A8
:10069000C093B800DF91CF9108958F929F92AF924F
:1006A000BF92CF92DF92EF92FF920F931F93CF935F
:1006B000DF93D091F601D13208F0D7C0182FC09146
:1006C000F5010E9483016B017C018091CD018111B4
:1006D0006BC082E08093CD011093CC018FEF8093AB
:1006E000CB011092CA01D093C901A5EDB1E0E9EAAE
:1006F000F1E080E0D81391C01092A8018091A80188
:10070000CC0FC82BC093A8018091A701813009F0BC
:1007100088C01092A7010E9483016B017C01809127
:10072000A8018093BB008091CF019091D001A0914E
:10073000D101B091D201892B8A2B8B2BA1F00E9481
:1007400083010091CF011091D0012091D10130910E
:10075000D2016C197D098E099F0906171707280712
:10076000390708F442C08091BC0083FDD8CF85ECE6
:100770008093BC000E9483016B017C018091CD01BC
:10078000823009F450C08091CB018F3F09F46FC0D3
:100790008091CB01803209F46CC08091CB01803311
:1007A00009F469C084E026C08091CF019091D00106
:1007B000A091D101B091D201892B8A2B8B2B09F406
:1007C00084CF0E9483018090CF019090D001A090AF
:1007D000D101B090D2016C197D098E099F0986164E
:1007E0009706A806B90608F070CF8091CE010E9446
:1007F0002C0385E01092D4011092F6011092D301DF
:10080000DF91CF911F910F91FF90EF90DF90CF90EC
:10081000BF90AF909F908F9008959D9191938F5F1F
:1008200069CF85EEA5CF8091CF019091D001A091A5
:10083000D101B091D201892B8A2B8B2B09F49ECF49
:100840000E9483010091CF011091D0012091D1012C
:100850003091D2016C197D098E099F09061717077F
:100860002807390708F08ACFC0CF81E0C3CF80E0E6
:10087000C1CF82E0BFCF83E0BDCF0895E091A50155
:100880008091A601E81730F4F0E0EB57FE4F80812D
:1008900090E008958FEF9FEF08959091A5018091CA
:1008A000A6012FEF3FEF981748F4E92FF0E0EB5740
:1008B000FE4F208130E09F5F9093A501C90108950C
:1008C000CF92DF92EF92FF920F931F93CF93DF931C
:1008D0007C01CB018A012091D301222389F0EB0115
:1008E0006B01C40ED51ECC15DD0569F06991D701E9
:1008F000ED91FC910190F081E02DC7010995F3CFB6
:10090000642F0E94E702C801DF91CF911F910F91E0
:10091000FF90EF90DF90CF900895CF93DF931F92D9
:10092000CDB7DEB769832091D3012223F9F020915E
:10093000F601203258F021E030E0FC0133832283BD
:1009400090E080E00F90DF91CF9108958091D401E5
:10095000E82FF0E0EB52FE4F998190838F5F8093F8
:10096000D4018093F60181E090E0ECCF61E0CE010C
:1009700001960E94E702F7CFCF93DF93EB019091AE
:10098000E20221E02093D3019093F5011092D4016B
:100990001092F601682F84E992E00E948D04813064
:1009A00061F441E050E0BE0184E992E00E946004FD
:1009B00081E0DF91CF910C944D038FEFDF91CF91C8
:1009C000089590E080E008958F929F92AF92BF9239
:1009D000CF92DF92EF92FF920F931F93CF93DF930B
:1009E0007B01C42F9091E20221E02093D3019093E8
:1009F000F5011092D4011092F601682F84E992E07B
:100A00000E948D04813009F0ECC080E00E944D030B
:100A10008111DAC0D091E2020E9483014B015C0196
:100A20008091CD01811166C081E08093CD018093DA
:100A3000CC019FEF9093CB011092CA019C0F909331
:100A4000C9018093A8018091A801DD0FD82BD09314
:100A5000A8018091A701813009F08CC01092A701F4
:100A60000E9483014B015C018091A8018093BB002F
:100A70008091CF019091D001A091D101B091D2018C
:100A8000892B8A2B8B2BA1F00E9483010091CF012F
:100A90001091D0012091D1013091D20168197909CA
:100AA0008A099B09061717072807390708F443C066
:100AB0008091BC0083FDD8CF85EC8093BC000E9460
:100AC00083014B015C018091CD01813009F454C058
:100AD0008091CA011C2F8C1710F41091CA01E9EA09
:100AE000F1E0A5E8B1E080E0811751F191919D938B
:100AF0008F5FFACF8091CF019091D001A091D10169
:100B0000B091D201892B8A2B8B2B09F489CF0E94BB
:100B100083010091CF011091D0012091D10130913A
:100B2000D201681979098A099B090617170728074E
:100B3000390708F075CF8091CE010E942C0310E098
:100B40001092A5011093A6016701F12CE12CD0E0D1
:100B50008091A501181791F1EC16FD067CF584E94A
:100B600092E00E944D049FEFE91AF90AF601819381
:100B70006F01EECF85EEA1CF8091CF019091D00192
:100B8000A091D101B091D201892B8A2B8B2B09F432
:100B90009ACF0E9483010091CF011091D001209142
:100BA000D1013091D201681979098A099B09061788
:100BB00017072807390708F086CFBDCF81E0EC166C
:100BC000FD0609F480E08195DF91CF911F910F918F
:100BD000FF90EF90DF90CF90BF90AF909F908F905D
:100BE00008958FEFF1CF4F925F926F927F928F9225
:100BF0009F92AF92BF92CF92DF92EF92FF920F93AC
:100C00001F93CF93DF9300D000D000D01F92CDB7B9
:100C1000DEB780E090E0A3E8B2E48093A602909370
:100C2000A702A093A802B093A9021092AA02109260
:100C3000AB021092AC021092AD021092AE02109272
:100C4000AF021092B0021092B1021092B202109252
:100C5000B3021092B4021092B5021092B602109232
:100C6000B7021092B8021092B9021092BA02109212
:100C7000BB021092BC021092BD021092BE021092F2
:100C8000BF021092C0021092C1021092C3021092D1
:100C9000C2021092C5021092C4021092C7021092B2
:100CA000C6021092C8021092C9021092CA02109293
:100CB000CB021092CC021092CD021092CE02109272
:100CC000CF021092D0021092D1021092D202109252
:100CD000D3021092A5011092A6011092D401109295
:100CE000F6010E940E038AEA90E0909384018093BB
:100CF00083018BEA90E0909382018093810168ECFC
:100D000070E080E090E00E94A8011982BE016F5F50
:100D10007F4F8BE60E94BC0464E670E080E090E0C8
:100D20000E94A80181E08A83BE016E5F7F4F8AE145
:100D30000E94BC0488E08B83BE016D5F7F4F8BE116
:100D40000E94BC0464E670E080E090E00E94A8018C
:100D500004EF11E01C821D821E821F82812C912CC7
:100D60005401412C512C320146E064ED72E083E4E1
:100D70000E94E4048091D4029091D502982789279B
:100D80009827092E000CAA0BBB0B480E591E6A1E91
:100D90007B1E8091D6029091D702982789279827A9
:100DA000092E000CAA0BBB0B880E991EAA1EBB1E97
:100DB0008091D8029091D902982789279827092EE7
:100DC000000CAA0BBB0B2C813D814E815F81280F4B
:100DD000391F4A1F5B1F2C833D834E835F83015065
:100DE000110909F0C1CF84EFC82EDD24D394E12C82
:100DF000F12CC301B201A70196010E94EF0ECA01B6
:100E0000B9010E94A2106093C8027093C902809336
:100E1000CA029093CB02C501B401A70196010E94BA
:100E2000EF0ECA01B9010E94A2106093CC02709328
:100E3000CD028093CE029093CF026C817D818E8112
:100E40009F81A70196010E94EF0ECA01B9010E947D
:100E5000A2106093D0027093D1028093D20290933B
:100E6000D30227960FB6F894DEBF0FBECDBFDF9139
:100E7000CF911F910F91FF90EF90DF90CF90BF9097
:100E8000AF909F908F907F906F905F904F9008955C
:100E9000FC0101900020E9F73197AF01481B590B85
:100EA000BC0187EF91E00C94DA018F929F92AF9290
:100EB000BF92CF92DF92EF92FF920F931F93CF9347
:100EC000DF93CDB7DEB7A1970FB6F894DEBF0FBEA4
:100ED000CDBF6C01990FEE08FF08F7FE47C06DE229
:100EE00087EF91E00E947A028C0122273327A90123
:100EF0002C193D094E095F0919A2CE0181967C018A
:100F00009AE0892E912CA12CB12CCA01B901A5011E
:100F100094010E94CD0E605DF70162937F0121155F
:100F200031054105510589F790E080E0309719F0CF
:100F3000CF010E944807080F191F84E291E00E9428
:100F40004807800F911FA1960FB6F894DEBF0FBE21
:100F5000CDBFDF91CF911F910F91FF90EF90DF9068
:100F6000CF90BF90AF909F908F900895A70196016A
:100F700019A28E010F5D1F4F8AE0C82ED12CE12CE3
:100F8000F12CCA01B901A70196010E94CD0E605D46
:100F9000F80162938F01211531054105510589F74B
:100FA000309729F0CF010E9448078C01C6CF10E08E
:100FB00000E0C3CF2F923F924F925F926F927F9249
:100FC0008F929F92AF92BF92CF92DF92EF92FF9259
:100FD000CF93DF93CDB7DEB728970FB6F894DEBF77
:100FE0000FBECDBF4EE064ED72E08BE30E94E404DF
:100FF000811113C26090D4027090D50276246724C8
:1010000076247092C3026092C202E090D602F09001
:10101000D702FE24EF24FE24F092C502E092C4021F
:10102000A090D802B090D902BA24AB24BA24B092CE
:10103000C702A092C6022090A6023090A70240905C
:10104000A8025090A9026091DC027091DD0276271F
:1010500067277627072E000C880B990B0E94A21099
:101060002091C8023091C9024091CA025091CB022E
:101070000E94140FA20191010E94F80F6093B60222
:101080007093B7028093B8029093B9026091DE0228
:101090007091DF02762767277627072E000C880BD2
:1010A000990B0E94A2102091CC023091CD02409168
:1010B000CE025091CF020E94140FA20191010E9412
:1010C000F80F6093BA027093BB028093BC029093B6
:1010D000BD026091E0027091E102762767277627D2
:1010E000072E000C880B990B0E94A2102091D002B1
:1010F0003091D1024091D2025091D3020E94140F3C
:10110000A20191010E94F80F6093BE027093BF028A
:101110008093C0029093C102B701FF0C880B990B1A
:101120000E94A2106B017C01B501BB0C880B990BCE
:101130000E94A2109B01AC010E94DE114B015C01D8
:10114000A7019601C701B6010E94DE11A501940115
:101150000E94150F0E94511269837A838B839C83AE
:10116000B301770C880B990B0E94A2102B013C0154
:1011700029813A814B815C810E94940F20E030E00C
:1011800044E353E40E94DE112AED3FE049E450E4D9
:101190000E94F80F69837A838B839C83A301920159
:1011A000C301B2010E94DE11A50194010E94150F36
:1011B0000E9451129B01AC01C701B6010E94940F1D
:1011C00020E030E044E353E40E94DE112AED3FE0EA
:1011D00049E450E40E94F80F6D837E838F839887E3
:1011E0002FB7F8946091790170917A0180917B0119
:1011F00090917C012FBFC0907D01D0907E01E09046
:101200007F01F09080016C197D098E099F090E9471
:10121000A01020E030E04AE754E40E94F80F6B0190
:101220007C012FB7F8948091790190917A01A09177
:101230007B01B0917C012FBF80937D0190937E0153
:10124000A0937F01B09380018091C6029091C70264
:101250002091BA023091BB024091BC025091BD0274
:10126000181619060CF0F0C0C701B6010E94DE1175
:101270009B01AC016091AA027091AB028091AC021B
:101280009091AD020E94140F6093AA027093AB027A
:101290008093AC029093AD022091B6023091B702D8
:1012A0004091B8025091B902C701B6010E94DE1107
:1012B0002091AE023091AF024091B0025091B10244
:1012C0000E94150F6093AE027093AF028093B0023C
:1012D0009093B1022091BE023091BF024091C002B2
:1012E0005091C102C701B6010E94DE112091B202E5
:1012F0003091B3024091B4025091B5020E94150F93
:101300002B013C0120E030E044EB53E40E94F80F55
:101310000E94DD1020E030E044EB53E40E94DE1137
:101320009B01AC01C301B2010E94140F2B013C01CF
:1013300020E030E044E353E40E94D11118160CF48D
:10134000B2C04092B2025092B3026092B402709264
:10135000B50220E030E040E05FE3C701B6010E9443
:10136000150F9B01AC0160E070E080E09FE30E94FC
:10137000F80F6B017C01AC019B0160E070E080E83C
:101380009FE30E94140F4B015C012091AA0230914F
:10139000AB024091AC025091AD02C701B6010E9470
:1013A000DE112B013C01A501940169817A818B81B9
:1013B0009C810E94DE119B01AC01C301B2010E941D
:1013C000150F6093AA027093AB028093AC029093C6
:1013D000AD022091AE023091AF024091B002509127
:1013E000B102C701B6010E94DE116B017C01A501AB
:1013F00094016D817E818F8198850E94DE119B0111
:10140000AC01C701B6010E94150F6093AE02709344
:10141000AF028093B0029093B10228960FB6F89471
:10142000DEBF0FBECDBFDF91CF91FF90EF90DF9079
:10143000CF90BF90AF909F908F907F906F905F9074
:101440004F903F902F900895C701B6010E94DE1182
:101450002091AA023091AB024091AC025091AD02B2
:101460000E94150F6093AA027093AB028093AC02A6
:101470009093AD022091B6023091B7024091B8022C
:101480005091B902C701B6010E94DE119B01AC0167
:101490006091AE027091AF028091B0029091B10262
:1014A0000E94140F0FCF20E030E044EB53E4C3015F
:1014B000B2010E94140F6093B2027093B302809342
:1014C000B4029093B50245CF85ED8093BC00809126
:1014D000CF019091D001A091D101B091D201079696
:1014E000A11DB11D23E0B695A795979587952A95DF
:1014F000D1F72091BC0024FD03C01092CD010895C6
:101500004091CF015091D0016091D1017091D201F1
:10151000452B462B472B69F30097A105B10541F0F8
:101520002AE22A95F1F700C00197A109B109E1CF9C
:101530008091CE010C942C03CF92DF92EF92FF9218
:101540000F931F93CF93DF93C82FD62F172F6901C7
:101550007A0161E00E94F80060E08C2F0E94AC00EC
:1015600083E090E00197F1F761E08C2F0E94AC00DE
:1015700083E290E00197F1F760E08C2F0E94AC00CD
:1015800060E08D2F0E94F8008D2F912FFC01E85311
:10159000FF4F6491FC01EC54FF4FE491F0E0EE0F3B
:1015A000FF1FEA56FF4F8591949100E412E42FE06B
:1015B00030E0462F0E94B60C61157105810591053A
:1015C00029F06F5F7F4F8F4F9F4F9F700E94A01039
:1015D000A70196010E94DE11DF91CF911F910F911B
:1015E000FF90EF90DF90CF9008951F920F920FB66B
:1015F0000F9211242F933F938F939F93AF93BF9399
:101600008091790190917A01A0917B01B0917C0148
:101610003091740123E0230F2D3758F50196A11D59
:10162000B11D209374018093790190937A01A09366
:101630007B01B0937C018091750190917601A0911E
:101640007701B09178010196A11DB11D80937501BC
:1016500090937601A0937701B0937801BF91AF91F9
:101660009F918F913F912F910F900FBE0F901F90E0
:10167000189526E8230F0296A11DB11DD2CF1F9207
:101680000F920FB60F9211242F933F934F935F93B6
:101690006F937F938F939F93AF93BF93EF93FF933A
:1016A00087EF91E00E945802FF91EF91BF91AF91B7
:1016B0009F918F917F916F915F914F913F912F916A
:1016C0000F900FBE0F901F9018951F920F920FB69C
:1016D0000F9211242F938F939F93EF93FF93E09199
:1016E0000702F09108028081E0910D02F0910E0254
:1016F00082FD1BC09081809110028F5F8F732091BB
:101700001102821741F0E0911002F0E0E950FE4F23
:10171000958F80931002FF91EF919F918F912F9160
:101720000F900FBE0F901F9018958081F4CF1F92DD
:101730000F920FB60F9211242F933F934F935F9305
:101740006F937F938F939F93AF93BF93EF93FF9389
:101750008091B900887F803609F44AC0F0F588325C
:1017600009F4A7C018F5803109F49BC0B8F48823A8
:1017700009F4F9C0883009F494C0FF91EF91BF914A
:10178000AF919F918F917F916F915F914F913F9119
:101790002F910F900FBE0F901F901895883109F46C
:1017A00088C0803251F78093CB0114C0803409F493
:1017B0009DC040F48033B9F38833F9F68093CB01B0
:1017C00085ECB0C0803509F485C0883509F496C031
:1017D000883499F60E94640AD0CF883909F48CC005
:1017E00038F5883729F050F4883611F0803729F61B
:1017F00083E08093CD011092730157C0883809F4BB
:101800007BC0803919F0803809F0B7CF809173011F
:10181000803208F071C0E091730181E08E0F8093F7
:1018200073018091BB00F0E0ED5AFE4F80833DC014
:10183000803B39F0E0F4803A09F479C0883A09F045
:101840009CCF84E08093CD011092520110925101FF
:10185000E0918301F09184010995809151018111FA
:101860000FC081E0809351011092310109C0803C8A
:1018700009F4A6CF883C09F4A3CF883B09F07DCFBB
:10188000E091520181E08E0F80935201F0E0EF5C15
:10189000FE4F80818093BB00909152018091510155
:1018A00029C08091A8018093BB0085EC8093BC0087
:1018B00064CF9091CA018091C901981758F5E091C1
:1018C000CA0181E08E0F8093CA01F0E0E755FE4F18
:1018D0008081E9CFE091CA0181E08E0F8093CA0137
:1018E0008091BB00F0E0E755FE4F80839091CA01E4
:1018F0008091C9019817C8F285E8D8CFE091CA0154
:1019000081E08E0F8093CA018091BB00F0E0E75523
:10191000FE4F80838091CC0181115CCF81E0809368
:10192000A70184EA8093BC001092CD0126CF85ECFC
:101930008093BC001092CD0180917301803230F40D
:10194000E0917301F0E0ED5AFE4F10826091730157
:1019500070E0E0918101F091820183E591E00995C9
:10196000109273010ACF1092CB0134CFCF92DF9245
:10197000EF92FF920F931F93E82FF92F05C00150AC
:1019800011092109310961F1908196239417B9F366
:1019900005C0015011092109310911F190819623E7
:1019A0009413F7CFC12CD12CE12CF12C0AC08FEF6E
:1019B000C81AD80AE80AF80A0C151D052E053F05B5
:1019C00079F080818623841791F36C2D7D2D8E2DE7
:1019D0009F2D1F910F91FF90EF90DF90CF90089572
:1019E00060E070E080E090E01F910F91FF90EF9039
:1019F000DF90CF900895E7EFF1E01382128288EE36
:101A000093E0A0E0B0E084839583A683B78324E0CD
:101A100031E03183208325EC30E03587248724ECC6
:101A200030E03787268720EC30E0318B208B21ECAB
:101A300030E0338B228B22EC30E0358B248B26EC8C
:101A400030E0378B268B118E128E138E148EE4E9C4
:101A5000F2E01382128284839583A683B78386E1A2
:101A600091E091838083E0EAF2E010821182128299
:101A700088E68093E2020895789484B5826084BDFC
:101A800084B5816084BD85B5826085BD85B5816082
:101A900085BD80916E00816080936E001092810000
:101AA00080918100826080938100809181008160BB
:101AB000809381008091800081608093800080917C
:101AC000B10084608093B1008091B0008160809308
:101AD000B00080917A00846080937A0080917A00CF
:101AE000826080937A0080917A00816080937A008E
:101AF00080917A00806880937A001092C10061E042
:101B000085E00E94F80061E085E00E94F80061E055
:101B100086E00E94F80061E089E00E94F80061E040
:101B20008AE00E94F800E0910702F091080282E04A
:101B30008083E0910302F09104021082E09105029B
:101B4000F09106028FEC808310920F02E0910B025D
:101B5000F0910C0286E08083E0910902F0910A0284
:101B6000808180618083E0910902F0910A02808186
:101B700088608083E0910902F0910A028081806888
:101B80008083E0910902F0910A0280818F7D808339
:101B900087E291E00E94480761E08DE00E94F80032
:101BA0000E94F30560E089E00E94AC0060E08AE0FA
:101BB0000E94AC0060E085E00E94AC0060E086E03E
:101BC0000E94AC009EE6A92EB12C20E0822E20E0DF
:101BD000922E26E933E44BE85CE36CE070E08DE0A4
:101BE00090E00E949C0A0E946A106B01EB01CB01FD
:101BF0000E945507B5016C197D09CA30D10514F052
:101C00006BE470E089E00E942901B601665A7F4FBB
:101C10002B9714F46BE470E085E00E94290167E1E2
:101C200070E080E090E00E94A8012BEC3DE34DE8DD
:101C30005CE363E070E083E090E00E949C0A20E0B7
:101C400030E040E751E40E94F30F87FF94C060E06A
:101C500089E00E94AC0060E08AE00E94AC0060E095
:101C600085E00E94AC0060E086E00E94AC0064EF7A
:101C700071E080E090E00E94A80166E970E089E0F0
:101C80000E94290166E970E086E00E94290187EF41
:101C900091E00E9416020E94DA07C090B202D09032
:101CA000B302E090B402F090B502C701B6010E9401
:101CB0006A108B010A551109412C512C32010C3448
:101CC0008FEF180734F4412C512C84EB682E83E4F9
:101CD000782EA3019201C701B6010E94140F0E9441
:101CE0006A10EB010C171D07F4F487EF91E00E94D6
:101CF00016020E94DA07A30192016091B20270916C
:101D0000B3028091B4029091B5020E94140F0E9418
:101D10006A106B01EB018CE291E00E944807C6015A
:101D20000E945507DFCF60E089E00E94AC0060E0D0
:101D30008AE00E94AC0060E085E00E94AC0060E0B8
:101D400086E00E94AC0060E089E00E94AC0060E0A8
:101D50008AE00E94AC0060E085E00E94AC0060E098
:101D600086E00E94AC000E94F30564EF71E080E021
:101D700090E00E94A8016EE170E080E090E00E9497
:101D8000A8018114910409F424CF0E9444028823FD
:101D900009F41FCF0E9400001CCFA1E21A2EAA1B3B
:101DA000BB1BFD010DC0AA1FBB1FEE1FFF1FA2170B
:101DB000B307E407F50720F0A21BB30BE40BF50B08
:101DC000661F771F881F991F1A9469F76095709591
:101DD000809590959B01AC01BD01CF010895052E22
:101DE00097FB1EF400940E94060F57FD07D00E9437
:101DF000CD0E07FC03D04EF40C94060F5095409581
:101E0000309521953F4F4F4F5F4F089590958095A6
:101E1000709561957F4F8F4F9F4F0895EE0FFF1F75
:101E20000590F491E02D09945058BB27AA270E94F1
:101E30002C0F0C947F110E94711138F00E947811C0
:101E400020F039F49F3F19F426F40C9447110EF456
:101E5000E095E7FB0C941811E92F0E94901158F3BC
:101E6000BA17620773078407950720F079F4A6F57F
:101E70000C94CA110EF4E0950B2EBA2FA02D0B0175
:101E8000B90190010C01CA01A0011124FF27591BBF
:101E900099F0593F50F4503E68F11A16F040A22FC5
:101EA000232F342F4427585FF3CF46953795279536
:101EB000A795F0405395C9F77EF41F16BA0B620B35
:101EC000730B840BBAF09150A1F0FF0FBB1F661F7C
:101ED000771F881FC2F70EC0BA0F621F731F841FBF
:101EE00048F4879577956795B795F7959E3F08F0E5
:101EF000B0CF9395880F08F09927EE0F97958795A7
:101F000008950E94711160F080E891E009F49EEF5D
:101F10000E94781128F040E851E071F45EEF0CC0A7
:101F20000C9447110C94CA11E92FE0780E9490118B
:101F300040F3092E052AB1F326173707480759073A
:101F400038F00E2E07F8E02569F0E025E0640AC0BD
:101F5000EF6307F8009407FADB01B9019D01DC018A
:101F6000CA01AD01EF930E940F100E947F110E94E1
:101F7000C40F5F91552339F02BED3FE049E450FD4C
:101F800049EC0C94150F0895DF93DD27B92FBF7727
:101F900040E85FE31616170648075B0718F4D92FC9
:101FA0000E94D6119F938F937F936F930E949112FB
:101FB000E8E6F0E00E944A110E947F112F913F91C4
:101FC0004F915F910E94F111DD2351F09058A2EAE8
:101FD0002AED3FE049EC5FE3D0785D270E942C0FAB
:101FE000DF910C947F110E94F41008F481E00895B1
:101FF0000E940C100C947F110E94781158F00E94DE
:10200000711140F029F45F3F29F00C94181151111F
:102010000C94CB110C9447110E94901168F39923F2
:10202000B1F3552391F3951B550BBB27AA276217D4
:102030007307840738F09F5F5F4F220F331F441FE1
:10204000AA1FA9F335D00E2E3AF0E0E832D0915015
:102050005040E695001CCAF72BD0FE2F29D0660F02
:10206000771F881FBB1F261737074807AB07B0E845
:1020700009F0BB0B802DBF01FF2793585F4F3AF04B
:102080009E3F510578F00C9418110C94CB115F3FD2
:10209000E4F3983ED4F3869577956795B795F795D1
:1020A0009F5FC9F7880F911D9695879597F90895B9
:1020B000E1E0660F771F881FBB1F62177307840755
:1020C000BA0720F0621B730B840BBA0BEE1F88F764
:1020D000E09508950E9471106894B1110C94CB1191
:1020E00008950E94981188F09F5798F0B92F99276A
:1020F000B751B0F0E1F0660F771F881F991F1AF0F3
:10210000BA95C9F714C0B13091F00E94CA11B1E07C
:1021100008950C94CA11672F782F8827B85F39F07B
:10212000B93FCCF3869577956795B395D9F73EF48B
:1021300090958095709561957F4F8F4F9F4F089533
:10214000E89409C097FB3EF4909580957095619551
:102150007F4F8F4F9F4F9923A9F0F92F96E9BB2707
:102160009395F695879577956795B795F111F8CF83
:10217000FAF4BB0F11F460FF1BC06F5F7F4F8F4FEE
:102180009F4F16C0882311F096E911C0772321F0E4
:102190009EE8872F762F05C0662371F096E8862F7C
:1021A00070E060E02AF09A95660F771F881FDAF7D3
:1021B000880F9695879597F908950E94B21190F02F
:1021C0009F3748F4911116F00C94CB1160E070E049
:1021D00080E89FEB089526F41B16611D711D811D7B
:1021E0000C941E110C943911990F0008550FAA0B6D
:1021F000E0E8FEEF16161706E807F907C0F012161A
:102200001306E407F50798F0621B730B840B950B1C
:1022100039F40A2661F0232B242B252B21F4089571
:102220000A2609F4A140A6958FEF811D811D08950E
:1022300097F99F6780E870E060E00895882371F463
:10224000772321F09850872B762F07C0662311F44F
:1022500099270DC09051862B70E060E02AF09A9586
:10226000660F771F881FDAF7880F9695879597F97D
:1022700008959F3F31F0915020F4879577956795A9
:10228000B795880F911D9695879597F908959FEFBB
:1022900080EC0895DF93CF931F930F93FF92EF92FB
:1022A000DF927B018C01689406C0DA2EEF010E9458
:1022B000F111FE01E894A591259135914591559133
:1022C000A6F3EF010E942C0FFE019701A801DA94FA
:1022D00069F7DF90EF90FF900F911F91CF91DF9101
:1022E000089500240A94161617061806090608957C
:1022F00000240A9412161306140605060895092EE2
:102300000394000C11F4882352F0BB0F40F4BF2B50
:1023100011F460FF04C06F5F7F4F8F4F9F4F089590
:1023200057FD9058440F551F59F05F3F71F0479586
:10233000880F97FB991F61F09F3F79F0879508956B
:10234000121613061406551FF2CF4695F1DF08C08A
:10235000161617061806991FF1CF869571056105A7
:10236000089408950E949811A0F0BEE7B91788F468
:10237000BB279F3860F41616B11D672F782F88276A
:10238000985FF7CF869577956795B11D93959639A8
:10239000C8F30895E894BB2766277727CB0197F900
:1023A00008950E94F41008F48FEF08959B01AC018A
:1023B00060E070E080E89FE30C94F80F0E94F11158
:1023C0000C947F110E94711138F00E94781120F056
:1023D000952311F00C9418110C94471111240C94AE
:1023E000CB110E94901170F3959FC1F3950F50E0AF
:1023F000551F629FF001729FBB27F00DB11D639FB7
:10240000AA27F00DB11DAA1F649F6627B00DA11D5C
:10241000661F829F2227B00DA11D621F739FB00D02
:10242000A11D621F839FA00D611D221F749F332772
:10243000A00D611D231F849F600D211D822F762F0B
:102440006A2F11249F5750409AF0F1F088234AF0E8
:10245000EE0FFF1FBB1F661F771F881F9150504054
:10246000A9F79E3F510580F00C9418110C94CB11E4
:102470005F3FE4F3983ED4F3869577956795B795DB
:10248000F795E7959F5FC1F7FE2B880F911D9695F5
:10249000879597F9089519F416F40C9447110C9444
:1024A00039110E949811B8F39923C9F3B6F39F57D5
:1024B000550B87FF0E9495120024A0E640EA900188
:1024C00080585695979528F4805C660F771F881F73
:1024D00020F026173707480730F4621B730B840B74
:1024E000202931294A2BA6951794079420253125B8
:1024F0004A2758F7660F771F881F20F026173707DF
:10250000480730F4620B730B840B200D311D411D05
:10251000A09581F7B901842F9158880F96958795DA
:1025200008959B01AC010C94DE1191505040660F50
:0C253000771F881FD2F70895F894FFCFA2
:10253C00000000007A02DA010702C7023802160214
:10254C002A02000000008D046004E1043D04A30095
:10255C004D043E040D0A006869320A00583A200006
:00000001FF
